{
    "contractName": "MyToken",
    "abi": [
        {
            "inputs": [
                {
                    "internalType": "address",
                    "name": "",
                    "type": "address"
                }
            ],
            "name": "balances",
            "outputs": [
                {
                    "internalType": "uint256",
                    "name": "",
                    "type": "uint256"
                }
            ],
            "stateMutability": "view",
            "type": "function"
        },
        {
            "inputs": [
                {
                    "internalType": "address",
                    "name": "_address",
                    "type": "address"
                },
                {
                    "internalType": "uint256",
                    "name": "_value",
                    "type": "uint256"
                }
            ],
            "name": "burn",
            "outputs": [],
            "stateMutability": "nonpayable",
            "type": "function"
        },
        {
            "inputs": [
                {
                    "internalType": "address",
                    "name": "_address",
                    "type": "address"
                },
                {
                    "internalType": "uint256",
                    "name": "_value",
                    "type": "uint256"
                }
            ],
            "name": "mint",
            "outputs": [],
            "stateMutability": "nonpayable",
            "type": "function"
        },
        {
            "inputs": [],
            "name": "tokenAbbrv",
            "outputs": [
                {
                    "internalType": "string",
                    "name": "",
                    "type": "string"
                }
            ],
            "stateMutability": "view",
            "type": "function"
        },
        {
            "inputs": [],
            "name": "tokenName",
            "outputs": [
                {
                    "internalType": "string",
                    "name": "",
                    "type": "string"
                }
            ],
            "stateMutability": "view",
            "type": "function"
        },
        {
            "inputs": [],
            "name": "totalSupply",
            "outputs": [
                {
                    "internalType": "uint256",
                    "name": "",
                    "type": "uint256"
                }
            ],
            "stateMutability": "view",
            "type": "function"
        }
    ],
    "bytecode": "60c0604052600e60809081526d27b934b3b4b730b62faa37b5b2b760911b60a05260009061002d908261010b565b5060408051808201909152600281526113d560f21b6020820152600190610054908261010b565b50600060025534801561006657600080fd5b506101ca565b634e487b7160e01b600052604160045260246000fd5b600181811c9082168061009657607f821691505b6020821081036100b657634e487b7160e01b600052602260045260246000fd5b50919050565b601f82111561010657600081815260208120601f850160051c810160208610156100e35750805b601f850160051c820191505b81811015610102578281556001016100ef565b5050505b505050565b81516001600160401b038111156101245761012461006c565b610138816101328454610082565b846100bc565b602080601f83116001811461016d57600084156101555750858301515b600019600386901b1c1916600185901b178555610102565b600085815260208120601f198616915b8281101561019c5788860151825594840194600190910190840161017d565b50858210156101ba5787850151600019600388901b60f8161c191681555b5050505050600190811b01905550565b610395806101d96000396000f3fe608060405234801561001057600080fd5b50600436106100625760003560e01c806318160ddd1461006757806327e235e31461008357806340c10f19146100a35780636c02a931146100b85780637a8ff07d146100cd5780639dc29fac146100d5575b600080fd5b61007060025481565b6040519081526020015b60405180910390f35b610070610091366004610249565b60036020526000908152604090205481565b6100b66100b136600461026b565b6100e8565b005b6100c0610130565b60405161007a9190610295565b6100c06101be565b6100b66100e336600461026b565b6101cb565b80600260008282546100fa91906102f9565b90915550506001600160a01b038216600090815260036020526040812080548392906101279084906102f9565b90915550505050565b6000805461013d90610312565b80601f016020809104026020016040519081016040528092919081815260200182805461016990610312565b80156101b65780601f1061018b576101008083540402835291602001916101b6565b820191906000526020600020905b81548152906001019060200180831161019957829003601f168201915b505050505081565b6001805461013d90610312565b6001600160a01b03821660009081526003602052604090205481116102295780600260008282546101fc919061034c565b90915550506001600160a01b0382166000908152600360205260408120805483929061012790849061034c565b5050565b80356001600160a01b038116811461024457600080fd5b919050565b60006020828403121561025b57600080fd5b6102648261022d565b9392505050565b6000806040838503121561027e57600080fd5b6102878361022d565b946020939093013593505050565b600060208083528351808285015260005b818110156102c2578581018301518582016040015282016102a6565b506000604082860101526040601f19601f8301168501019250505092915050565b634e487b7160e01b600052601160045260246000fd5b8082018082111561030c5761030c6102e3565b92915050565b600181811c9082168061032657607f821691505b60208210810361034657634e487b7160e01b600052602260045260246000fd5b50919050565b8181038181111561030c5761030c6102e356fea2646970667358221220511232a1d972c6697ffd6dc957be3ca39090485387a5c96ba624978d0a66a1a364736f6c63430008130033",
    "sourcePath": "c:/Users/dell/Desktop/temp/Metacrafters-Summer-Training/ETH PROOF Beginner EVM Course/myToken.sol",
    "compiler": {
        "name": "solc",
        "version": "0.8.19+commit.7dd6d404"
    },
    "functionHashes": {
        "balances(address)": "27e235e3",
        "burn(address,uint256)": "9dc29fac",
        "mint(address,uint256)": "40c10f19",
        "tokenAbbrv()": "7a8ff07d",
        "tokenName()": "6c02a931",
        "totalSupply()": "18160ddd"
    },
    "gasEstimates": {
        "creation": {
            "codeDepositCost": "183400",
            "executionCost": "infinite",
            "totalCost": "infinite"
        },
        "external": {
            "balances(address)": "2508",
            "burn(address,uint256)": "infinite",
            "mint(address,uint256)": "infinite",
            "tokenAbbrv()": "infinite",
            "tokenName()": "infinite",
            "totalSupply()": "2262"
        }
    }
}